{
  "transactions": [
    {
      "hash": "0xad66fbfcd08e6cdf61e494c37f1647f0aff8f323cc1dd1d9f66524011ee9f3da",
      "transactionType": "CREATE",
      "contractName": "BuildingArg",
      "contractAddress": "0x3ee721cdeacf35e09ebb1b38567400d4d1666a5e",
      "function": null,
      "arguments": null,
      "transaction": {
        "from": "0x368a8eb0f28766a13fb803e0777eb68a25a2080d",
        "gas": "0x37475",
        "value": "0x0",
        "input": "0x60806040526000805460ff60a01b196001600160a01b0319909116739d29d33d4329640e96cc259e141838eb3eb2f1d91716905534801561003f57600080fd5b506101c68061004f6000396000f3fe608060405234801561001057600080fd5b506004361061004c5760003560e01c806335f738a7146100515780635f9a4bca1461006d5780636ffb1bcd1461008a578063b642864d146100ae575b600080fd5b6100596100cd565b604080519115158252519081900360200190f35b6100596004803603602081101561008357600080fd5b50356100dd565b61009261011e565b604080516001600160a01b039092168252519081900360200190f35b6100cb600480360360208110156100c457600080fd5b503561012d565b005b600054600160a01b900460ff1681565b60008054600160a01b900460ff1661010857506000805460ff60a01b1916600160a01b178155610119565b506000805460ff60a01b1916905560015b919050565b6000546001600160a01b031681565b6000805460408051633b669c4d60e21b81526004810185905290516001600160a01b039092169263ed9a71349260248084019382900301818387803b15801561017557600080fd5b505af1158015610189573d6000803e3d6000fd5b505050505056fea2646970667358221220f6853fe24d5291b3e0e7e0d502385c5f209cb20bf9128e2eccfa8d77384c534364736f6c63430007000033",
        "nonce": "0x4d",
        "chainId": "0xaa36a7"
      },
      "additionalContracts": [],
      "isFixedGasLimit": false
    },
    {
      "hash": "0xe694051a0b7ed83c55f85ddd131005b92796cac4ac9836c3586132faf916db32",
      "transactionType": "CALL",
      "contractName": null,
      "contractAddress": "0x9d29d33d4329640e96cc259e141838eb3eb2f1d9",
      "function": "flip(bool)",
      "arguments": [
        "false"
      ],
      "transaction": {
        "from": "0x368a8eb0f28766a13fb803e0777eb68a25a2080d",
        "to": "0x9d29d33d4329640e96cc259e141838eb3eb2f1d9",
        "gas": "0xce2d",
        "value": "0x0",
        "input": "0x1d263f670000000000000000000000000000000000000000000000000000000000000000",
        "nonce": "0x4e",
        "chainId": "0xaa36a7"
      },
      "additionalContracts": [],
      "isFixedGasLimit": false
    },
    {
      "hash": "0xce6208c1f22e9d274002f02ddf5c75f7e16d96e50ff379e77a4e9c6d8daf0b32",
      "transactionType": "CALL",
      "contractName": null,
      "contractAddress": "0x9d29d33d4329640e96cc259e141838eb3eb2f1d9",
      "function": "sendPassword(bytes32)",
      "arguments": [
        "0xde241fe7f783f2ed343248c0762dade0cf4eea6ed49dfe2f9f1267483c9eade8"
      ],
      "transaction": {
        "from": "0x368a8eb0f28766a13fb803e0777eb68a25a2080d",
        "to": "0x9d29d33d4329640e96cc259e141838eb3eb2f1d9",
        "gas": "0x9914",
        "value": "0x0",
        "input": "0x5c8d2c38de241fe7f783f2ed343248c0762dade0cf4eea6ed49dfe2f9f1267483c9eade8",
        "nonce": "0x4f",
        "chainId": "0xaa36a7"
      },
      "additionalContracts": [],
      "isFixedGasLimit": false
    }
  ],
  "receipts": [
    {
      "status": "0x1",
      "cumulativeGasUsed": "0x88df49",
      "logs": [],
      "logsBloom": "0x00000000000000000000000000000000000000000000000000000000000000000000000000000000000000000000000000000000000000000000000000000000000000000000000000000000000000000000000000000000000000000000000000000000000000000000000000000000000000000000000000000000000000000000000000000000000000000000000000000000000000000000000000000000000000000000000000000000000000000000000000000000000000000000000000000000000000000000000000000000000000000000000000000000000000000000000000000000000000000000000000000000000000000000000000000000",
      "type": "0x2",
      "transactionHash": "0xad66fbfcd08e6cdf61e494c37f1647f0aff8f323cc1dd1d9f66524011ee9f3da",
      "transactionIndex": "0x58",
      "blockHash": "0xcbd4495e3539f8cac493fd4da2714248ac291db501352ee0735f0b4e67ce6636",
      "blockNumber": "0x60fb8d",
      "gasUsed": "0x2a87c",
      "effectiveGasPrice": "0x774a6b7a6",
      "from": "0x368a8eb0f28766a13fb803e0777eb68a25a2080d",
      "to": null,
      "contractAddress": "0x3ee721cdeacf35e09ebb1b38567400d4d1666a5e"
    },
    {
      "status": "0x1",
      "cumulativeGasUsed": "0x896c43",
      "logs": [],
      "logsBloom": "0x00000000000000000000000000000000000000000000000000000000000000000000000000000000000000000000000000000000000000000000000000000000000000000000000000000000000000000000000000000000000000000000000000000000000000000000000000000000000000000000000000000000000000000000000000000000000000000000000000000000000000000000000000000000000000000000000000000000000000000000000000000000000000000000000000000000000000000000000000000000000000000000000000000000000000000000000000000000000000000000000000000000000000000000000000000000",
      "type": "0x2",
      "transactionHash": "0xe694051a0b7ed83c55f85ddd131005b92796cac4ac9836c3586132faf916db32",
      "transactionIndex": "0x59",
      "blockHash": "0xcbd4495e3539f8cac493fd4da2714248ac291db501352ee0735f0b4e67ce6636",
      "blockNumber": "0x60fb8d",
      "gasUsed": "0x8cfa",
      "effectiveGasPrice": "0x774a6b7a6",
      "from": "0x368a8eb0f28766a13fb803e0777eb68a25a2080d",
      "to": "0x9d29d33d4329640e96cc259e141838eb3eb2f1d9",
      "contractAddress": null
    },
    {
      "status": "0x1",
      "cumulativeGasUsed": "0x89db17",
      "logs": [],
      "logsBloom": "0x00000000000000000000000000000000000000000000000000000000000000000000000000000000000000000000000000000000000000000000000000000000000000000000000000000000000000000000000000000000000000000000000000000000000000000000000000000000000000000000000000000000000000000000000000000000000000000000000000000000000000000000000000000000000000000000000000000000000000000000000000000000000000000000000000000000000000000000000000000000000000000000000000000000000000000000000000000000000000000000000000000000000000000000000000000000",
      "type": "0x2",
      "transactionHash": "0xce6208c1f22e9d274002f02ddf5c75f7e16d96e50ff379e77a4e9c6d8daf0b32",
      "transactionIndex": "0x5a",
      "blockHash": "0xcbd4495e3539f8cac493fd4da2714248ac291db501352ee0735f0b4e67ce6636",
      "blockNumber": "0x60fb8d",
      "gasUsed": "0x6ed4",
      "effectiveGasPrice": "0x774a6b7a6",
      "from": "0x368a8eb0f28766a13fb803e0777eb68a25a2080d",
      "to": "0x9d29d33d4329640e96cc259e141838eb3eb2f1d9",
      "contractAddress": null
    }
  ],
  "libraries": [],
  "pending": [],
  "returns": {},
  "timestamp": 1721647287,
  "chain": 11155111,
  "commit": "4913c41"
}