{
  "transactions": [
    {
      "hash": "0x30e3949f1362082bee6f4e219d156b13a6a2bc6f0a5d1c3ad17ca55bc32ff096",
      "transactionType": "CREATE",
      "contractName": "BuildingArg",
      "contractAddress": "0xd1e03f6f52021efceb9cc212a3e0298f3fb0001f",
      "function": null,
      "arguments": null,
      "transaction": {
        "from": "0x368a8eb0f28766a13fb803e0777eb68a25a2080d",
        "gas": "0x37475",
        "value": "0x0",
        "input": "0x60806040526000805460ff60a01b196001600160a01b0319909116739d29d33d4329640e96cc259e141838eb3eb2f1d91716905534801561003f57600080fd5b506101c68061004f6000396000f3fe608060405234801561001057600080fd5b506004361061004c5760003560e01c806335f738a7146100515780635f9a4bca1461006d5780636ffb1bcd1461008a578063b642864d146100ae575b600080fd5b6100596100cd565b604080519115158252519081900360200190f35b6100596004803603602081101561008357600080fd5b50356100dd565b61009261011e565b604080516001600160a01b039092168252519081900360200190f35b6100cb600480360360208110156100c457600080fd5b503561012d565b005b600054600160a01b900460ff1681565b60008054600160a01b900460ff1661010857506000805460ff60a01b1916600160a01b178155610119565b506000805460ff60a01b1916905560015b919050565b6000546001600160a01b031681565b6000805460408051633b669c4d60e21b81526004810185905290516001600160a01b039092169263ed9a71349260248084019382900301818387803b15801561017557600080fd5b505af1158015610189573d6000803e3d6000fd5b505050505056fea2646970667358221220f6853fe24d5291b3e0e7e0d502385c5f209cb20bf9128e2eccfa8d77384c534364736f6c63430007000033",
        "nonce": "0x3e",
        "chainId": "0xaa36a7"
      },
      "additionalContracts": [],
      "isFixedGasLimit": false
    },
    {
      "hash": "0x7fba47d8f0cb7f5276415fe41cc9981ec04a6d6825d65e316fa9093b41533047",
      "transactionType": "CALL",
      "contractName": null,
      "contractAddress": "0x9d29d33d4329640e96cc259e141838eb3eb2f1d9",
      "function": "flip(bool)",
      "arguments": [
        "false"
      ],
      "transaction": {
        "from": "0x368a8eb0f28766a13fb803e0777eb68a25a2080d",
        "to": "0x9d29d33d4329640e96cc259e141838eb3eb2f1d9",
        "gas": "0xce2d",
        "value": "0x0",
        "input": "0x1d263f670000000000000000000000000000000000000000000000000000000000000000",
        "nonce": "0x3f",
        "chainId": "0xaa36a7"
      },
      "additionalContracts": [],
      "isFixedGasLimit": false
    },
    {
      "hash": "0x637c9fb7dcffcb412c7677c9fda2b2a9ff0b68caa1a236224d243321c6ef88f0",
      "transactionType": "CALL",
      "contractName": null,
      "contractAddress": "0x9d29d33d4329640e96cc259e141838eb3eb2f1d9",
      "function": "sendPassword(bytes32)",
      "arguments": [
        "0xde241fe7f783f2ed343248c0762dade0cf4eea6ed49dfe2f9f1267483c9eade8"
      ],
      "transaction": {
        "from": "0x368a8eb0f28766a13fb803e0777eb68a25a2080d",
        "to": "0x9d29d33d4329640e96cc259e141838eb3eb2f1d9",
        "gas": "0x9914",
        "value": "0x0",
        "input": "0x5c8d2c38de241fe7f783f2ed343248c0762dade0cf4eea6ed49dfe2f9f1267483c9eade8",
        "nonce": "0x40",
        "chainId": "0xaa36a7"
      },
      "additionalContracts": [],
      "isFixedGasLimit": false
    }
  ],
  "receipts": [
    {
      "status": "0x1",
      "cumulativeGasUsed": "0xbb6843",
      "logs": [],
      "logsBloom": "0x00000000000000000000000000000000000000000000000000000000000000000000000000000000000000000000000000000000000000000000000000000000000000000000000000000000000000000000000000000000000000000000000000000000000000000000000000000000000000000000000000000000000000000000000000000000000000000000000000000000000000000000000000000000000000000000000000000000000000000000000000000000000000000000000000000000000000000000000000000000000000000000000000000000000000000000000000000000000000000000000000000000000000000000000000000000",
      "type": "0x2",
      "transactionHash": "0x30e3949f1362082bee6f4e219d156b13a6a2bc6f0a5d1c3ad17ca55bc32ff096",
      "transactionIndex": "0x79",
      "blockHash": "0x9066c4defda8852374b9d98091e1818dc0612fc41f52aeb20ac5893c2f9de67c",
      "blockNumber": "0x60fb76",
      "gasUsed": "0x2a87c",
      "effectiveGasPrice": "0x66e344d0c",
      "from": "0x368a8eb0f28766a13fb803e0777eb68a25a2080d",
      "to": null,
      "contractAddress": "0xd1e03f6f52021efceb9cc212a3e0298f3fb0001f"
    },
    {
      "status": "0x1",
      "cumulativeGasUsed": "0xbbf53d",
      "logs": [],
      "logsBloom": "0x00000000000000000000000000000000000000000000000000000000000000000000000000000000000000000000000000000000000000000000000000000000000000000000000000000000000000000000000000000000000000000000000000000000000000000000000000000000000000000000000000000000000000000000000000000000000000000000000000000000000000000000000000000000000000000000000000000000000000000000000000000000000000000000000000000000000000000000000000000000000000000000000000000000000000000000000000000000000000000000000000000000000000000000000000000000",
      "type": "0x2",
      "transactionHash": "0x7fba47d8f0cb7f5276415fe41cc9981ec04a6d6825d65e316fa9093b41533047",
      "transactionIndex": "0x7a",
      "blockHash": "0x9066c4defda8852374b9d98091e1818dc0612fc41f52aeb20ac5893c2f9de67c",
      "blockNumber": "0x60fb76",
      "gasUsed": "0x8cfa",
      "effectiveGasPrice": "0x66e344d0c",
      "from": "0x368a8eb0f28766a13fb803e0777eb68a25a2080d",
      "to": "0x9d29d33d4329640e96cc259e141838eb3eb2f1d9",
      "contractAddress": null
    },
    {
      "status": "0x1",
      "cumulativeGasUsed": "0xbc6411",
      "logs": [],
      "logsBloom": "0x00000000000000000000000000000000000000000000000000000000000000000000000000000000000000000000000000000000000000000000000000000000000000000000000000000000000000000000000000000000000000000000000000000000000000000000000000000000000000000000000000000000000000000000000000000000000000000000000000000000000000000000000000000000000000000000000000000000000000000000000000000000000000000000000000000000000000000000000000000000000000000000000000000000000000000000000000000000000000000000000000000000000000000000000000000000",
      "type": "0x2",
      "transactionHash": "0x637c9fb7dcffcb412c7677c9fda2b2a9ff0b68caa1a236224d243321c6ef88f0",
      "transactionIndex": "0x7b",
      "blockHash": "0x9066c4defda8852374b9d98091e1818dc0612fc41f52aeb20ac5893c2f9de67c",
      "blockNumber": "0x60fb76",
      "gasUsed": "0x6ed4",
      "effectiveGasPrice": "0x66e344d0c",
      "from": "0x368a8eb0f28766a13fb803e0777eb68a25a2080d",
      "to": "0x9d29d33d4329640e96cc259e141838eb3eb2f1d9",
      "contractAddress": null
    }
  ],
  "libraries": [],
  "pending": [],
  "returns": {},
  "timestamp": 1721646929,
  "chain": 11155111,
  "commit": "4913c41"
}