{
  "transactions": [
    {
      "hash": "0x905acff61d29ea44eecddcd6b6af60429aaeddadf10fe08a253faf4edb1aa0ce",
      "transactionType": "CREATE",
      "contractName": "BuildingArg",
      "contractAddress": "0x00ac4a99911926c70726027df25a2ede9a5de574",
      "function": null,
      "arguments": null,
      "transaction": {
        "from": "0x368a8eb0f28766a13fb803e0777eb68a25a2080d",
        "gas": "0x37475",
        "value": "0x0",
        "input": "0x60806040526000805460ff60a01b196001600160a01b0319909116739d29d33d4329640e96cc259e141838eb3eb2f1d91716905534801561003f57600080fd5b506101c68061004f6000396000f3fe608060405234801561001057600080fd5b506004361061004c5760003560e01c806335f738a7146100515780635f9a4bca1461006d5780636ffb1bcd1461008a578063b642864d146100ae575b600080fd5b6100596100cd565b604080519115158252519081900360200190f35b6100596004803603602081101561008357600080fd5b50356100dd565b61009261011e565b604080516001600160a01b039092168252519081900360200190f35b6100cb600480360360208110156100c457600080fd5b503561012d565b005b600054600160a01b900460ff1681565b60008054600160a01b900460ff1661010857506000805460ff60a01b1916600160a01b178155610119565b506000805460ff60a01b1916905560015b919050565b6000546001600160a01b031681565b6000805460408051633b669c4d60e21b81526004810185905290516001600160a01b039092169263ed9a71349260248084019382900301818387803b15801561017557600080fd5b505af1158015610189573d6000803e3d6000fd5b505050505056fea2646970667358221220f6853fe24d5291b3e0e7e0d502385c5f209cb20bf9128e2eccfa8d77384c534364736f6c63430007000033",
        "nonce": "0x50",
        "chainId": "0xaa36a7"
      },
      "additionalContracts": [],
      "isFixedGasLimit": false
    },
    {
      "hash": "0xa401f9dbab46b6cf7b033841707a470599e1b7583e5ddd217ffb33dd1a39eff3",
      "transactionType": "CALL",
      "contractName": null,
      "contractAddress": "0x9d29d33d4329640e96cc259e141838eb3eb2f1d9",
      "function": "flip(bool)",
      "arguments": [
        "false"
      ],
      "transaction": {
        "from": "0x368a8eb0f28766a13fb803e0777eb68a25a2080d",
        "to": "0x9d29d33d4329640e96cc259e141838eb3eb2f1d9",
        "gas": "0x16c68",
        "value": "0x0",
        "input": "0x1d263f670000000000000000000000000000000000000000000000000000000000000000",
        "nonce": "0x51",
        "chainId": "0xaa36a7"
      },
      "additionalContracts": [],
      "isFixedGasLimit": false
    },
    {
      "hash": "0x8436e17383b272679fb91ce695c9e25129126f9c218956f51570bfb45504815e",
      "transactionType": "CALL",
      "contractName": null,
      "contractAddress": "0x9d29d33d4329640e96cc259e141838eb3eb2f1d9",
      "function": "sendPassword(bytes32)",
      "arguments": [
        "0xde241fe7f783f2ed343248c0762dade0cf4eea6ed49dfe2f9f1267483c9eade8"
      ],
      "transaction": {
        "from": "0x368a8eb0f28766a13fb803e0777eb68a25a2080d",
        "to": "0x9d29d33d4329640e96cc259e141838eb3eb2f1d9",
        "gas": "0x9914",
        "value": "0x0",
        "input": "0x5c8d2c38de241fe7f783f2ed343248c0762dade0cf4eea6ed49dfe2f9f1267483c9eade8",
        "nonce": "0x52",
        "chainId": "0xaa36a7"
      },
      "additionalContracts": [],
      "isFixedGasLimit": false
    }
  ],
  "receipts": [
    {
      "status": "0x1",
      "cumulativeGasUsed": "0x1156772",
      "logs": [],
      "logsBloom": "0x00000000000000000000000000000000000000000000000000000000000000000000000000000000000000000000000000000000000000000000000000000000000000000000000000000000000000000000000000000000000000000000000000000000000000000000000000000000000000000000000000000000000000000000000000000000000000000000000000000000000000000000000000000000000000000000000000000000000000000000000000000000000000000000000000000000000000000000000000000000000000000000000000000000000000000000000000000000000000000000000000000000000000000000000000000000",
      "type": "0x2",
      "transactionHash": "0x905acff61d29ea44eecddcd6b6af60429aaeddadf10fe08a253faf4edb1aa0ce",
      "transactionIndex": "0xb6",
      "blockHash": "0x348f7c3e242226053a80af4c1cd3b0c74354224f36be5f4f6f3c8cbded1e4251",
      "blockNumber": "0x60fb8f",
      "gasUsed": "0x2a87c",
      "effectiveGasPrice": "0x64f8f646d",
      "from": "0x368a8eb0f28766a13fb803e0777eb68a25a2080d",
      "to": null,
      "contractAddress": "0x00ac4a99911926c70726027df25a2ede9a5de574"
    },
    {
      "status": "0x1",
      "cumulativeGasUsed": "0x116609d",
      "logs": [],
      "logsBloom": "0x00000000000000000000000000000000000000000000000000000000000000000000000000000000000000000000000000000000000000000000000000000000000000000000000000000000000000000000000000000000000000000000000000000000000000000000000000000000000000000000000000000000000000000000000000000000000000000000000000000000000000000000000000000000000000000000000000000000000000000000000000000000000000000000000000000000000000000000000000000000000000000000000000000000000000000000000000000000000000000000000000000000000000000000000000000000",
      "type": "0x2",
      "transactionHash": "0xa401f9dbab46b6cf7b033841707a470599e1b7583e5ddd217ffb33dd1a39eff3",
      "transactionIndex": "0xb7",
      "blockHash": "0x348f7c3e242226053a80af4c1cd3b0c74354224f36be5f4f6f3c8cbded1e4251",
      "blockNumber": "0x60fb8f",
      "gasUsed": "0xf92b",
      "effectiveGasPrice": "0x64f8f646d",
      "from": "0x368a8eb0f28766a13fb803e0777eb68a25a2080d",
      "to": "0x9d29d33d4329640e96cc259e141838eb3eb2f1d9",
      "contractAddress": null
    },
    {
      "status": "0x1",
      "cumulativeGasUsed": "0x116cf71",
      "logs": [],
      "logsBloom": "0x00000000000000000000000000000000000000000000000000000000000000000000000000000000000000000000000000000000000000000000000000000000000000000000000000000000000000000000000000000000000000000000000000000000000000000000000000000000000000000000000000000000000000000000000000000000000000000000000000000000000000000000000000000000000000000000000000000000000000000000000000000000000000000000000000000000000000000000000000000000000000000000000000000000000000000000000000000000000000000000000000000000000000000000000000000000",
      "type": "0x2",
      "transactionHash": "0x8436e17383b272679fb91ce695c9e25129126f9c218956f51570bfb45504815e",
      "transactionIndex": "0xb8",
      "blockHash": "0x348f7c3e242226053a80af4c1cd3b0c74354224f36be5f4f6f3c8cbded1e4251",
      "blockNumber": "0x60fb8f",
      "gasUsed": "0x6ed4",
      "effectiveGasPrice": "0x64f8f646d",
      "from": "0x368a8eb0f28766a13fb803e0777eb68a25a2080d",
      "to": "0x9d29d33d4329640e96cc259e141838eb3eb2f1d9",
      "contractAddress": null
    }
  ],
  "libraries": [],
  "pending": [],
  "returns": {},
  "timestamp": 1721647323,
  "chain": 11155111,
  "commit": "4913c41"
}