{
  "transactions": [
    {
      "hash": "0x2903f0361df0f950461d3408e5ad8ad956fa37af8b90139f23db2edf697b7507",
      "transactionType": "CREATE",
      "contractName": "BuildingArg",
      "contractAddress": "0x76d3c5e0669b90cc47bbd19431d7ac1a461c57cc",
      "function": null,
      "arguments": null,
      "transaction": {
        "from": "0x368a8eb0f28766a13fb803e0777eb68a25a2080d",
        "gas": "0x30c78",
        "value": "0x0",
        "input": "0x60806040526000805460ff60a01b1916905534801561001d57600080fd5b506101c68061002d6000396000f3fe608060405234801561001057600080fd5b506004361061004c5760003560e01c806335f738a7146100515780635f9a4bca1461006d5780636ffb1bcd1461008a578063b642864d146100ae575b600080fd5b6100596100cd565b604080519115158252519081900360200190f35b6100596004803603602081101561008357600080fd5b50356100dd565b61009261011e565b604080516001600160a01b039092168252519081900360200190f35b6100cb600480360360208110156100c457600080fd5b503561012d565b005b600054600160a01b900460ff1681565b60008054600160a01b900460ff1661010857506000805460ff60a01b1916600160a01b178155610119565b506000805460ff60a01b1916905560015b919050565b6000546001600160a01b031681565b6000805460408051633b669c4d60e21b81526004810185905290516001600160a01b039092169263ed9a71349260248084019382900301818387803b15801561017557600080fd5b505af1158015610189573d6000803e3d6000fd5b505050505056fea26469706673582212204181e231f5e9814d8384db4aeeb1d5701335a5b9b7241a71dac49b06b49c2f4264736f6c63430007000033",
        "nonce": "0x25",
        "chainId": "0xaa36a7"
      },
      "additionalContracts": [],
      "isFixedGasLimit": false
    },
    {
      "hash": "0x0829bca1a0347b1ff2ccee723710cd29ca8bac132b955a1e24dfaebdf9aed300",
      "transactionType": "CALL",
      "contractName": null,
      "contractAddress": "0x9d29d33d4329640e96cc259e141838eb3eb2f1d9",
      "function": "flip(bool)",
      "arguments": [
        "false"
      ],
      "transaction": {
        "from": "0x368a8eb0f28766a13fb803e0777eb68a25a2080d",
        "to": "0x9d29d33d4329640e96cc259e141838eb3eb2f1d9",
        "gas": "0xce2d",
        "value": "0x0",
        "input": "0x1d263f670000000000000000000000000000000000000000000000000000000000000000",
        "nonce": "0x26",
        "chainId": "0xaa36a7"
      },
      "additionalContracts": [],
      "isFixedGasLimit": false
    },
    {
      "hash": "0x9b024bb0a16fad12f47b4066d66e0d0e8e6c6ed4b2bde33310980e029b8a9c1b",
      "transactionType": "CALL",
      "contractName": null,
      "contractAddress": "0x9d29d33d4329640e96cc259e141838eb3eb2f1d9",
      "function": "sendPassword(bytes32)",
      "arguments": [
        "0xde241fe7f783f2ed343248c0762dade0cf4eea6ed49dfe2f9f1267483c9eade8"
      ],
      "transaction": {
        "from": "0x368a8eb0f28766a13fb803e0777eb68a25a2080d",
        "to": "0x9d29d33d4329640e96cc259e141838eb3eb2f1d9",
        "gas": "0x9914",
        "value": "0x0",
        "input": "0x5c8d2c38de241fe7f783f2ed343248c0762dade0cf4eea6ed49dfe2f9f1267483c9eade8",
        "nonce": "0x27",
        "chainId": "0xaa36a7"
      },
      "additionalContracts": [],
      "isFixedGasLimit": false
    },
    {
      "hash": "0x5fb8531223e8a7a5da9b15daac6b932c7a579bbfc35a16e88121bf7e086ef177",
      "transactionType": "CALL",
      "contractName": null,
      "contractAddress": "0x9d29d33d4329640e96cc259e141838eb3eb2f1d9",
      "function": "contribute()",
      "arguments": [],
      "transaction": {
        "from": "0x368a8eb0f28766a13fb803e0777eb68a25a2080d",
        "to": "0x9d29d33d4329640e96cc259e141838eb3eb2f1d9",
        "gas": "0xbb37",
        "value": "0x9184e72a000",
        "input": "0xd7bb99ba",
        "nonce": "0x28",
        "chainId": "0xaa36a7"
      },
      "additionalContracts": [],
      "isFixedGasLimit": false
    },
    {
      "hash": "0x73b9c7c4a2b275c3c0bc8bb8dafa01d9f5ed47f01471fc86f0d795d0ce71dece",
      "transactionType": "CALL",
      "contractName": null,
      "contractAddress": "0x9d29d33d4329640e96cc259e141838eb3eb2f1d9",
      "function": null,
      "arguments": null,
      "transaction": {
        "from": "0x368a8eb0f28766a13fb803e0777eb68a25a2080d",
        "to": "0x9d29d33d4329640e96cc259e141838eb3eb2f1d9",
        "gas": "0x958a",
        "value": "0x9184e72a000",
        "input": "0x",
        "nonce": "0x29",
        "chainId": "0xaa36a7"
      },
      "additionalContracts": [],
      "isFixedGasLimit": false
    },
    {
      "hash": "0xf89d7bdcc72c02ce69c1e88b99166336bbd984b41452312873a11443f43151e7",
      "transactionType": "CALL",
      "contractName": null,
      "contractAddress": "0x9d29d33d4329640e96cc259e141838eb3eb2f1d9",
      "function": "sendKey(bytes16)",
      "arguments": [
        "0x4cded594c37730434fcf53dd25e29ab500000000000000000000000000000000"
      ],
      "transaction": {
        "from": "0x368a8eb0f28766a13fb803e0777eb68a25a2080d",
        "to": "0x9d29d33d4329640e96cc259e141838eb3eb2f1d9",
        "gas": "0xa187",
        "value": "0x0",
        "input": "0x9d3ad91a4cded594c37730434fcf53dd25e29ab500000000000000000000000000000000",
        "nonce": "0x2a",
        "chainId": "0xaa36a7"
      },
      "additionalContracts": [],
      "isFixedGasLimit": false
    },
    {
      "hash": "0x4c8b2730766f3ed88f238f4f2a99e987f76930a603bbef379c70eafec67c6149",
      "transactionType": "CALL",
      "contractName": null,
      "contractAddress": "0x9d29d33d4329640e96cc259e141838eb3eb2f1d9",
      "function": "transfer(address,uint256)",
      "arguments": [
        "0x9D29D33d4329640e96cC259E141838EB3EB2f1d9",
        "1"
      ],
      "transaction": {
        "from": "0x368a8eb0f28766a13fb803e0777eb68a25a2080d",
        "to": "0x9d29d33d4329640e96cc259e141838eb3eb2f1d9",
        "gas": "0xc61b",
        "value": "0x0",
        "input": "0xa9059cbb0000000000000000000000009d29d33d4329640e96cc259e141838eb3eb2f1d90000000000000000000000000000000000000000000000000000000000000001",
        "nonce": "0x2b",
        "chainId": "0xaa36a7"
      },
      "additionalContracts": [],
      "isFixedGasLimit": false
    }
  ],
  "receipts": [
    {
      "status": "0x1",
      "cumulativeGasUsed": "0x151cec1",
      "logs": [],
      "logsBloom": "0x00000000000000000000000000000000000000000000000000000000000000000000000000000000000000000000000000000000000000000000000000000000000000000000000000000000000000000000000000000000000000000000000000000000000000000000000000000000000000000000000000000000000000000000000000000000000000000000000000000000000000000000000000000000000000000000000000000000000000000000000000000000000000000000000000000000000000000000000000000000000000000000000000000000000000000000000000000000000000000000000000000000000000000000000000000000",
      "type": "0x2",
      "transactionHash": "0x2903f0361df0f950461d3408e5ad8ad956fa37af8b90139f23db2edf697b7507",
      "transactionIndex": "0xca",
      "blockHash": "0x3bcd7999e36169b2ea39bf97b39972faaae12647f804374dacd67dc0f408858b",
      "blockNumber": "0x60fb4b",
      "gasUsed": "0x2587d",
      "effectiveGasPrice": "0x5e48020ca",
      "from": "0x368a8eb0f28766a13fb803e0777eb68a25a2080d",
      "to": null,
      "contractAddress": "0x76d3c5e0669b90cc47bbd19431d7ac1a461c57cc"
    },
    {
      "status": "0x1",
      "cumulativeGasUsed": "0x152a234",
      "logs": [],
      "logsBloom": "0x00000000000000000000000000000000000000000000000000000000000000000000000000000000000000000000000000000000000000000000000000000000000000000000000000000000000000000000000000000000000000000000000000000000000000000000000000000000000000000000000000000000000000000000000000000000000000000000000000000000000000000000000000000000000000000000000000000000000000000000000000000000000000000000000000000000000000000000000000000000000000000000000000000000000000000000000000000000000000000000000000000000000000000000000000000000",
      "type": "0x2",
      "transactionHash": "0x9b024bb0a16fad12f47b4066d66e0d0e8e6c6ed4b2bde33310980e029b8a9c1b",
      "transactionIndex": "0xcc",
      "blockHash": "0x3bcd7999e36169b2ea39bf97b39972faaae12647f804374dacd67dc0f408858b",
      "blockNumber": "0x60fb4b",
      "gasUsed": "0x6ed4",
      "effectiveGasPrice": "0x5e48020ca",
      "from": "0x368a8eb0f28766a13fb803e0777eb68a25a2080d",
      "to": "0x9d29d33d4329640e96cc259e141838eb3eb2f1d9",
      "contractAddress": null
    },
    {
      "status": "0x1",
      "cumulativeGasUsed": "0x1532237",
      "logs": [],
      "logsBloom": "0x00000000000000000000000000000000000000000000000000000000000000000000000000000000000000000000000000000000000000000000000000000000000000000000000000000000000000000000000000000000000000000000000000000000000000000000000000000000000000000000000000000000000000000000000000000000000000000000000000000000000000000000000000000000000000000000000000000000000000000000000000000000000000000000000000000000000000000000000000000000000000000000000000000000000000000000000000000000000000000000000000000000000000000000000000000000",
      "type": "0x2",
      "transactionHash": "0x5fb8531223e8a7a5da9b15daac6b932c7a579bbfc35a16e88121bf7e086ef177",
      "transactionIndex": "0xcd",
      "blockHash": "0x3bcd7999e36169b2ea39bf97b39972faaae12647f804374dacd67dc0f408858b",
      "blockNumber": "0x60fb4b",
      "gasUsed": "0x8003",
      "effectiveGasPrice": "0x5e48020ca",
      "from": "0x368a8eb0f28766a13fb803e0777eb68a25a2080d",
      "to": "0x9d29d33d4329640e96cc259e141838eb3eb2f1d9",
      "contractAddress": null
    },
    {
      "status": "0x1",
      "cumulativeGasUsed": "0x1538e7b",
      "logs": [],
      "logsBloom": "0x00000000000000000000000000000000000000000000000000000000000000000000000000000000000000000000000000000000000000000000000000000000000000000000000000000000000000000000000000000000000000000000000000000000000000000000000000000000000000000000000000000000000000000000000000000000000000000000000000000000000000000000000000000000000000000000000000000000000000000000000000000000000000000000000000000000000000000000000000000000000000000000000000000000000000000000000000000000000000000000000000000000000000000000000000000000",
      "type": "0x2",
      "transactionHash": "0x73b9c7c4a2b275c3c0bc8bb8dafa01d9f5ed47f01471fc86f0d795d0ce71dece",
      "transactionIndex": "0xce",
      "blockHash": "0x3bcd7999e36169b2ea39bf97b39972faaae12647f804374dacd67dc0f408858b",
      "blockNumber": "0x60fb4b",
      "gasUsed": "0x6c44",
      "effectiveGasPrice": "0x5e48020ca",
      "from": "0x368a8eb0f28766a13fb803e0777eb68a25a2080d",
      "to": "0x9d29d33d4329640e96cc259e141838eb3eb2f1d9",
      "contractAddress": null
    },
    {
      "status": "0x1",
      "cumulativeGasUsed": "0x153fcee",
      "logs": [],
      "logsBloom": "0x00000000000000000000000000000000000000000000000000000000000000000000000000000000000000000000000000000000000000000000000000000000000000000000000000000000000000000000000000000000000000000000000000000000000000000000000000000000000000000000000000000000000000000000000000000000000000000000000000000000000000000000000000000000000000000000000000000000000000000000000000000000000000000000000000000000000000000000000000000000000000000000000000000000000000000000000000000000000000000000000000000000000000000000000000000000",
      "type": "0x2",
      "transactionHash": "0xf89d7bdcc72c02ce69c1e88b99166336bbd984b41452312873a11443f43151e7",
      "transactionIndex": "0xcf",
      "blockHash": "0x3bcd7999e36169b2ea39bf97b39972faaae12647f804374dacd67dc0f408858b",
      "blockNumber": "0x60fb4b",
      "gasUsed": "0x6e73",
      "effectiveGasPrice": "0x5e48020ca",
      "from": "0x368a8eb0f28766a13fb803e0777eb68a25a2080d",
      "to": "0x9d29d33d4329640e96cc259e141838eb3eb2f1d9",
      "contractAddress": null
    },
    {
      "status": "0x1",
      "cumulativeGasUsed": "0x1548c5c",
      "logs": [],
      "logsBloom": "0x00000000000000000000000000000000000000000000000000000000000000000000000000000000000000000000000000000000000000000000000000000000000000000000000000000000000000000000000000000000000000000000000000000000000000000000000000000000000000000000000000000000000000000000000000000000000000000000000000000000000000000000000000000000000000000000000000000000000000000000000000000000000000000000000000000000000000000000000000000000000000000000000000000000000000000000000000000000000000000000000000000000000000000000000000000000",
      "type": "0x2",
      "transactionHash": "0x4c8b2730766f3ed88f238f4f2a99e987f76930a603bbef379c70eafec67c6149",
      "transactionIndex": "0xd0",
      "blockHash": "0x3bcd7999e36169b2ea39bf97b39972faaae12647f804374dacd67dc0f408858b",
      "blockNumber": "0x60fb4b",
      "gasUsed": "0x8f6e",
      "effectiveGasPrice": "0x5e48020ca",
      "from": "0x368a8eb0f28766a13fb803e0777eb68a25a2080d",
      "to": "0x9d29d33d4329640e96cc259e141838eb3eb2f1d9",
      "contractAddress": null
    }
  ],
  "libraries": [],
  "pending": [],
  "returns": {},
  "timestamp": 1721646254,
  "chain": 11155111,
  "commit": "4913c41"
}