{
  "transactions": [
    {
      "hash": "0xa2ee9ac0d978916fd4e2d51e6e87f19445070eeae0b373343081d72ca5bdc6c7",
      "transactionType": "CREATE",
      "contractName": "BuildingArg",
      "contractAddress": "0x8ae4ca63293b3133f8660241315c98f35f467f64",
      "function": null,
      "arguments": null,
      "transaction": {
        "from": "0x368a8eb0f28766a13fb803e0777eb68a25a2080d",
        "gas": "0x30c78",
        "value": "0x0",
        "input": "0x60806040526000805460ff60a01b1916905534801561001d57600080fd5b506101c68061002d6000396000f3fe608060405234801561001057600080fd5b506004361061004c5760003560e01c806335f738a7146100515780635f9a4bca1461006d5780636ffb1bcd1461008a578063b642864d146100ae575b600080fd5b6100596100cd565b604080519115158252519081900360200190f35b6100596004803603602081101561008357600080fd5b50356100dd565b61009261011e565b604080516001600160a01b039092168252519081900360200190f35b6100cb600480360360208110156100c457600080fd5b503561012d565b005b600054600160a01b900460ff1681565b60008054600160a01b900460ff1661010857506000805460ff60a01b1916600160a01b178155610119565b506000805460ff60a01b1916905560015b919050565b6000546001600160a01b031681565b6000805460408051633b669c4d60e21b81526004810185905290516001600160a01b039092169263ed9a71349260248084019382900301818387803b15801561017557600080fd5b505af1158015610189573d6000803e3d6000fd5b505050505056fea26469706673582212202282e454f10dd356a612b7d836f59da66a9f691a46901d9259dfc4c6abe367a764736f6c63430007000033",
        "nonce": "0x1d",
        "chainId": "0xaa36a7"
      },
      "additionalContracts": [],
      "isFixedGasLimit": false
    },
    {
      "hash": "0xdadf8b4dbdd3540d893aad2e3e57865e7f1ef179afc23201e65110465ed7e802",
      "transactionType": "CALL",
      "contractName": null,
      "contractAddress": "0x9d29d33d4329640e96cc259e141838eb3eb2f1d9",
      "function": "flip(bool)",
      "arguments": [
        "false"
      ],
      "transaction": {
        "from": "0x368a8eb0f28766a13fb803e0777eb68a25a2080d",
        "to": "0x9d29d33d4329640e96cc259e141838eb3eb2f1d9",
        "gas": "0x11efc",
        "value": "0x0",
        "input": "0x1d263f670000000000000000000000000000000000000000000000000000000000000000",
        "nonce": "0x1e",
        "chainId": "0xaa36a7"
      },
      "additionalContracts": [],
      "isFixedGasLimit": false
    },
    {
      "hash": "0x3253dabadd2d83fcaf8632df504aa5401f9f3dd3a8e81d80825b9aaa7951bad7",
      "transactionType": "CALL",
      "contractName": null,
      "contractAddress": "0x9d29d33d4329640e96cc259e141838eb3eb2f1d9",
      "function": "sendPassword(bytes32)",
      "arguments": [
        "0xde241fe7f783f2ed343248c0762dade0cf4eea6ed49dfe2f9f1267483c9eade8"
      ],
      "transaction": {
        "from": "0x368a8eb0f28766a13fb803e0777eb68a25a2080d",
        "to": "0x9d29d33d4329640e96cc259e141838eb3eb2f1d9",
        "gas": "0x194ce",
        "value": "0x0",
        "input": "0x5c8d2c38de241fe7f783f2ed343248c0762dade0cf4eea6ed49dfe2f9f1267483c9eade8",
        "nonce": "0x1f",
        "chainId": "0xaa36a7"
      },
      "additionalContracts": [],
      "isFixedGasLimit": false
    },
    {
      "hash": "0x8fc92e3f234bd037cabdd579f5e1bb7df42b50b37faba1d551b37f5cfc79d3da",
      "transactionType": "CALL",
      "contractName": null,
      "contractAddress": "0x9d29d33d4329640e96cc259e141838eb3eb2f1d9",
      "function": "addPoint()",
      "arguments": [],
      "transaction": {
        "from": "0x368a8eb0f28766a13fb803e0777eb68a25a2080d",
        "to": "0x9d29d33d4329640e96cc259e141838eb3eb2f1d9",
        "gas": "0x7e97",
        "value": "0x0",
        "input": "0x6bf39aaa",
        "nonce": "0x20",
        "chainId": "0xaa36a7"
      },
      "additionalContracts": [],
      "isFixedGasLimit": false
    },
    {
      "hash": "0xcd3613e42b4a64b36dcfe308f21d05592bddcb15c13ac8b558256a63e3992772",
      "transactionType": "CALL",
      "contractName": null,
      "contractAddress": "0x9d29d33d4329640e96cc259e141838eb3eb2f1d9",
      "function": "contribute()",
      "arguments": [],
      "transaction": {
        "from": "0x368a8eb0f28766a13fb803e0777eb68a25a2080d",
        "to": "0x9d29d33d4329640e96cc259e141838eb3eb2f1d9",
        "gas": "0x10d13",
        "value": "0x9184e72a000",
        "input": "0xd7bb99ba",
        "nonce": "0x21",
        "chainId": "0xaa36a7"
      },
      "additionalContracts": [],
      "isFixedGasLimit": false
    },
    {
      "hash": "0xb4ec865dfa3a719587daf9202a83a3c64b4e09ebe6a78c1ef5ddb9d59738061f",
      "transactionType": "CALL",
      "contractName": null,
      "contractAddress": "0x9d29d33d4329640e96cc259e141838eb3eb2f1d9",
      "function": null,
      "arguments": null,
      "transaction": {
        "from": "0x368a8eb0f28766a13fb803e0777eb68a25a2080d",
        "to": "0x9d29d33d4329640e96cc259e141838eb3eb2f1d9",
        "gas": "0x11e83",
        "value": "0x9184e72a000",
        "input": "0x",
        "nonce": "0x22",
        "chainId": "0xaa36a7"
      },
      "additionalContracts": [],
      "isFixedGasLimit": false
    },
    {
      "hash": "0x75e055e6b78d88787819eb8a4b5dbab6a7f53d59381454db1372062b5221c946",
      "transactionType": "CALL",
      "contractName": null,
      "contractAddress": "0x9d29d33d4329640e96cc259e141838eb3eb2f1d9",
      "function": "sendKey(bytes16)",
      "arguments": [
        "0x4cded594c37730434fcf53dd25e29ab500000000000000000000000000000000"
      ],
      "transaction": {
        "from": "0x368a8eb0f28766a13fb803e0777eb68a25a2080d",
        "to": "0x9d29d33d4329640e96cc259e141838eb3eb2f1d9",
        "gas": "0x12186",
        "value": "0x0",
        "input": "0x9d3ad91a4cded594c37730434fcf53dd25e29ab500000000000000000000000000000000",
        "nonce": "0x23",
        "chainId": "0xaa36a7"
      },
      "additionalContracts": [],
      "isFixedGasLimit": false
    },
    {
      "hash": "0x49002045473659bf66580fe10405003fb4b0ef3e0c7fa3e370ff0d7b1b79c3d5",
      "transactionType": "CALL",
      "contractName": null,
      "contractAddress": "0x9d29d33d4329640e96cc259e141838eb3eb2f1d9",
      "function": "transfer(address,uint256)",
      "arguments": [
        "0x9D29D33d4329640e96cC259E141838EB3EB2f1d9",
        "1"
      ],
      "transaction": {
        "from": "0x368a8eb0f28766a13fb803e0777eb68a25a2080d",
        "to": "0x9d29d33d4329640e96cc259e141838eb3eb2f1d9",
        "gas": "0x1ab6e",
        "value": "0x0",
        "input": "0xa9059cbb0000000000000000000000009d29d33d4329640e96cc259e141838eb3eb2f1d90000000000000000000000000000000000000000000000000000000000000001",
        "nonce": "0x24",
        "chainId": "0xaa36a7"
      },
      "additionalContracts": [],
      "isFixedGasLimit": false
    }
  ],
  "receipts": [
    {
      "status": "0x1",
      "cumulativeGasUsed": "0xc07fd0",
      "logs": [],
      "logsBloom": "0x00000000000000000000000000000000000000000000000000000000000000000000000000000000000000000000000000000000000000000000000000000000000000000000000000000000000000000000000000000000000000000000000000000000000000000000000000000000000000000000000000000000000000000000000000000000000000000000000000000000000000000000000000000000000000000000000000000000000000000000000000000000000000000000000000000000000000000000000000000000000000000000000000000000000000000000000000000000000000000000000000000000000000000000000000000000",
      "type": "0x2",
      "transactionHash": "0xa2ee9ac0d978916fd4e2d51e6e87f19445070eeae0b373343081d72ca5bdc6c7",
      "transactionIndex": "0x6d",
      "blockHash": "0xa68eabd15de7e0602a4ea07f28a9011ef27e34b31427ad02bc543002a280151b",
      "blockNumber": "0x60fb3d",
      "gasUsed": "0x2587d",
      "effectiveGasPrice": "0x5943b4c02",
      "from": "0x368a8eb0f28766a13fb803e0777eb68a25a2080d",
      "to": null,
      "contractAddress": "0x8ae4ca63293b3133f8660241315c98f35f467f64"
    },
    {
      "status": "0x1",
      "cumulativeGasUsed": "0xc14f96",
      "logs": [],
      "logsBloom": "0x00000000000000000000000000000000000000000000000000000000000000000000000000000000000000000000000000000000000000000000000000000000000000000000000000000000000000000000000000000000000000000000000000000000000000000000000000000000000000000000000000000000000000000000000000000000000000000000000000000000000000000000000000000000000000000000000000000000000000000000000000000000000000000000000000000000000000000000000000000000000000000000000000000000000000000000000000000000000000000000000000000000000000000000000000000000",
      "type": "0x2",
      "transactionHash": "0xdadf8b4dbdd3540d893aad2e3e57865e7f1ef179afc23201e65110465ed7e802",
      "transactionIndex": "0x6e",
      "blockHash": "0xa68eabd15de7e0602a4ea07f28a9011ef27e34b31427ad02bc543002a280151b",
      "blockNumber": "0x60fb3d",
      "gasUsed": "0xcfc6",
      "effectiveGasPrice": "0x5943b4c02",
      "from": "0x368a8eb0f28766a13fb803e0777eb68a25a2080d",
      "to": "0x9d29d33d4329640e96cc259e141838eb3eb2f1d9",
      "contractAddress": null
    },
    {
      "status": "0x1",
      "cumulativeGasUsed": "0xc26461",
      "logs": [],
      "logsBloom": "0x00000000000000000000000000000000000000000000000000000000000000000000000000000000000000000000000000000000000000000000000000000000000000000000000000000000000000000000000000000000000000000000000000000000000000000000000000000000000000000000000000000000000000000000000000000000000000000000000000000000000000000000000000000000000000000000000000000000000000000000000000000000000000000000000000000000000000000000000000000000000000000000000000000000000000000000000000000000000000000000000000000000000000000000000000000000",
      "type": "0x2",
      "transactionHash": "0x3253dabadd2d83fcaf8632df504aa5401f9f3dd3a8e81d80825b9aaa7951bad7",
      "transactionIndex": "0x6f",
      "blockHash": "0xa68eabd15de7e0602a4ea07f28a9011ef27e34b31427ad02bc543002a280151b",
      "blockNumber": "0x60fb3d",
      "gasUsed": "0x114cb",
      "effectiveGasPrice": "0x5943b4c02",
      "from": "0x368a8eb0f28766a13fb803e0777eb68a25a2080d",
      "to": "0x9d29d33d4329640e96cc259e141838eb3eb2f1d9",
      "contractAddress": null
    },
    {
      "status": "0x1",
      "cumulativeGasUsed": "0xc2c008",
      "logs": [],
      "logsBloom": "0x00000000000000000000000000000000000000000000000000000000000000000000000000000000000000000000000000000000000000000000000000000000000000000000000000000000000000000000000000000000000000000000000000000000000000000000000000000000000000000000000000000000000000000000000000000000000000000000000000000000000000000000000000000000000000000000000000000000000000000000000000000000000000000000000000000000000000000000000000000000000000000000000000000000000000000000000000000000000000000000000000000000000000000000000000000000",
      "type": "0x2",
      "transactionHash": "0x8fc92e3f234bd037cabdd579f5e1bb7df42b50b37faba1d551b37f5cfc79d3da",
      "transactionIndex": "0x70",
      "blockHash": "0xa68eabd15de7e0602a4ea07f28a9011ef27e34b31427ad02bc543002a280151b",
      "blockNumber": "0x60fb3d",
      "gasUsed": "0x5ba7",
      "effectiveGasPrice": "0x5943b4c02",
      "from": "0x368a8eb0f28766a13fb803e0777eb68a25a2080d",
      "to": "0x9d29d33d4329640e96cc259e141838eb3eb2f1d9",
      "contractAddress": null
    },
    {
      "status": "0x1",
      "cumulativeGasUsed": "0xc382d7",
      "logs": [],
      "logsBloom": "0x00000000000000000000000000000000000000000000000000000000000000000000000000000000000000000000000000000000000000000000000000000000000000000000000000000000000000000000000000000000000000000000000000000000000000000000000000000000000000000000000000000000000000000000000000000000000000000000000000000000000000000000000000000000000000000000000000000000000000000000000000000000000000000000000000000000000000000000000000000000000000000000000000000000000000000000000000000000000000000000000000000000000000000000000000000000",
      "type": "0x2",
      "transactionHash": "0xcd3613e42b4a64b36dcfe308f21d05592bddcb15c13ac8b558256a63e3992772",
      "transactionIndex": "0x71",
      "blockHash": "0xa68eabd15de7e0602a4ea07f28a9011ef27e34b31427ad02bc543002a280151b",
      "blockNumber": "0x60fb3d",
      "gasUsed": "0xc2cf",
      "effectiveGasPrice": "0x5943b4c02",
      "from": "0x368a8eb0f28766a13fb803e0777eb68a25a2080d",
      "to": "0x9d29d33d4329640e96cc259e141838eb3eb2f1d9",
      "contractAddress": null
    },
    {
      "status": "0x1",
      "cumulativeGasUsed": "0xc45246",
      "logs": [],
      "logsBloom": "0x00000000000000000000000000000000000000000000000000000000000000000000000000000000000000000000000000000000000000000000000000000000000000000000000000000000000000000000000000000000000000000000000000000000000000000000000000000000000000000000000000000000000000000000000000000000000000000000000000000000000000000000000000000000000000000000000000000000000000000000000000000000000000000000000000000000000000000000000000000000000000000000000000000000000000000000000000000000000000000000000000000000000000000000000000000000",
      "type": "0x2",
      "transactionHash": "0xb4ec865dfa3a719587daf9202a83a3c64b4e09ebe6a78c1ef5ddb9d59738061f",
      "transactionIndex": "0x72",
      "blockHash": "0xa68eabd15de7e0602a4ea07f28a9011ef27e34b31427ad02bc543002a280151b",
      "blockNumber": "0x60fb3d",
      "gasUsed": "0xcf6f",
      "effectiveGasPrice": "0x5943b4c02",
      "from": "0x368a8eb0f28766a13fb803e0777eb68a25a2080d",
      "to": "0x9d29d33d4329640e96cc259e141838eb3eb2f1d9",
      "contractAddress": null
    },
    {
      "status": "0x1",
      "cumulativeGasUsed": "0xc523e3",
      "logs": [],
      "logsBloom": "0x00000000000000000000000000000000000000000000000000000000000000000000000000000000000000000000000000000000000000000000000000000000000000000000000000000000000000000000000000000000000000000000000000000000000000000000000000000000000000000000000000000000000000000000000000000000000000000000000000000000000000000000000000000000000000000000000000000000000000000000000000000000000000000000000000000000000000000000000000000000000000000000000000000000000000000000000000000000000000000000000000000000000000000000000000000000",
      "type": "0x2",
      "transactionHash": "0x75e055e6b78d88787819eb8a4b5dbab6a7f53d59381454db1372062b5221c946",
      "transactionIndex": "0x73",
      "blockHash": "0xa68eabd15de7e0602a4ea07f28a9011ef27e34b31427ad02bc543002a280151b",
      "blockNumber": "0x60fb3d",
      "gasUsed": "0xd19d",
      "effectiveGasPrice": "0x5943b4c02",
      "from": "0x368a8eb0f28766a13fb803e0777eb68a25a2080d",
      "to": "0x9d29d33d4329640e96cc259e141838eb3eb2f1d9",
      "contractAddress": null
    },
    {
      "status": "0x1",
      "cumulativeGasUsed": "0xc65957",
      "logs": [],
      "logsBloom": "0x00000000000000000000000000000000000000000000000000000000000000000000000000000000000000000000000000000000000000000000000000000000000000000000000000000000000000000000000000000000000000000000000000000000000000000000000000000000000000000000000000000000000000000000000000000000000000000000000000000000000000000000000000000000000000000000000000000000000000000000000000000000000000000000000000000000000000000000000000000000000000000000000000000000000000000000000000000000000000000000000000000000000000000000000000000000",
      "type": "0x2",
      "transactionHash": "0x49002045473659bf66580fe10405003fb4b0ef3e0c7fa3e370ff0d7b1b79c3d5",
      "transactionIndex": "0x74",
      "blockHash": "0xa68eabd15de7e0602a4ea07f28a9011ef27e34b31427ad02bc543002a280151b",
      "blockNumber": "0x60fb3d",
      "gasUsed": "0x13574",
      "effectiveGasPrice": "0x5943b4c02",
      "from": "0x368a8eb0f28766a13fb803e0777eb68a25a2080d",
      "to": "0x9d29d33d4329640e96cc259e141838eb3eb2f1d9",
      "contractAddress": null
    }
  ],
  "libraries": [],
  "pending": [],
  "returns": {},
  "timestamp": 1721646001,
  "chain": 11155111,
  "commit": "4913c41"
}